S013000050574D5F446973706C61792E73726563E8
S11300000C94EE010C940B020C940B020C940B0256
S11300100C940B020C940B020C940B020C940B0228
S11300200C940B020C940B020C940B020C940B0218
S11300300C940B020C940B020C940B020C940B0208
S11300400C940B020C940B020C940B020C940B02F8
S11300500C940B02FFFFFFFFFF00FFFFFFFFFFFFFA
S113006000FFFFFFFFFFFF00FFFFFFFFFFFF00FF99
S1130070FFFFFFFFFF00FFFFFFFFFFFF00FFFFFF8A
S1130080FFFFFF00FFFFFFFFFFFF00FFFFFFFFFF7A
S1130090FF00FFFFFFFFFFFF00FFFFFFFFFFFF0069
S11300A0FFFFFFFFFFFF00FFFFFFFFFFFF00FFFF5A
S11300B0FFFFFFFF00FFFFFFFFFFFF00FFFFFFFF4A
S11300C0FFFF00FFFFFFFFFFFF00FFFFFFFFFFFF3A
S11300D000FFFFFFFFFFFF00FFFFFFFFFFFF00FF29
S11300E0FFFFFFFFFF00FFFFFFFFFFFF00FFFFFF1A
S11300F0FFFFFF00FFFFFFFFFFFF00FFFFFFFFFF0A
S1130100FF00FFFFFFFFFFFF00FFFFFFFFFFFF00F8
S1130110FFFFFFFFFFFF00FFFFFFFFFFFF00FFFFE9
S1130120FFFFFFFF00FFFFFFFFFFFF00FFFFFFFFD9
S1130130FFFF00FF0000000000FFFF00004F000071
S113014000FF000700070000FF147F147F1400FF66
S1130150242A7F2A1200FF231308646200FF364911
S113016055222000FF000503000000FF001C22416F
S11301700000FF0041221C0000FF14083E08140088
S1130180FF08083E080800FF503000000000FF0888
S11301900808080800FF006060000000FF20100845
S11301A0040200FF3E5149453E00FF40427F40406B
S11301B000FF426151494600FF2141454B3100FF98
S11301C01814127F1000FF274545453900FF3C4AAB
S11301D049493000FF017109050300FF36494949C7
S11301E03600FF064949291E00FF0036360000008C
S11301F0FF005636000000FF081422410000FF14DF
S11302001414141400FF004122140800FF020151C9
S1130210090600FF3E415D551E00FF7E1111117E4F
S113022000FF7F4949493600FF3E4141412200FF1A
S11302307F4141221C00FF7F4949494100FF7F095A
S113024009090100FF3E4149497A00FF7F08080877
S11302507F00FF00417F410000FF2040413F01003B
S1130260FF7F0814224100FF7F4040404000FF7F91
S1130270020C027F00FF7F0408107F00FF3E414113
S1130280413E00FF7F0909090600FF3E4151215EFE
S113029000FF7F0919294600FF264949493200FF1A
S11302A001017F010100FF3F4040403F00FF1F204C
S11302B040201F00FF3F4038403F00FF63140814F4
S11302C06300FF070870080700FF615149454300B8
S11302D0FF007F41410000FF020408102000FF00DE
S11302E041417F0000FF040201020400FF4040403E
S11302F0404000FF000003050000FF2054545478E0
S113030000FF7F4444443800FF384444444400FF21
S1130310384444447F00FF385454541800FF040404
S11303207E050500FF085454543C00FF7F08040474
S11303307800FF00447D4000FFFF2040443D00FF63
S1130340FF7F10284400FFFF417F4000FFFFFF7C38
S1130350047C047800FF7C0804047800FF384444DB
S1130360443800FF7C1414140800FF081414147C8F
S113037000FF7C08040400FFFF485454542400FF89
S113038004043F444400FF3C4040207C00FF1C2008
S113039040201C00FF3C4030403C00FF4428102813
S11303A04400FF0C5050503C00FF4464544C440043
S11303B0FF083641410000FF000077000000FF0005
S11303C04141360800FF08082A1C0800FF081C2ABF
S11303D0080800FFFFFFFFFFFF00FF0011241FBEFE
S11303E0CFE5D8E0DEBFCDBF11E0A0E6B0E0E8E1A4
S11303F0F6E102C005900D92A434B107D9F721E0CB
S1130400A4E4B1E001C01D92AC34B207E1F70E944C
S1130410AC040C940A0B0C9400008A3108F0BDC0A3
S1130420811109C040E067E00E94140680EA90E070
S11304300E940E07089584E00E9459068FE50E94E9
S1130440CE068FE50E94CE0685E00E9459068AEB0F
S113045090E00E940E0786E00E9459068AEB90E025
S11304600E940E0787E00E9459068AEB90E00E94E2
S11304700E078FE50E94CE068FE50E94CE068FE51B
S11304800E94CE068FE50E94CE068FE50E94CE061E
S11304908CEB90E00E940E074EE266E080E00E9442
S11304A014068CEB90E00E940E074EE265E080E0BB
S11304B00E9414068CEB90E00E940E0742E364E075
S11304C080E00E9414068FE50E94CE068FE50E940C
S11304D0CE064CE365E080E00E9414068CE70E949F
S11304E0CE064CE366E080E00E9414068CE70E948E
S11304F0CE064CE367E080E00E9414068CE70E947D
S1130500CE0640E467E080E00E94140680EB90E0B1
S11305100E940E0740E267E081E00E9414068CE727
S11305200E94CE0640E266E081E00E9414068CE759
S11305300E94CE0640E265E081E00E9414068CE74A
S11305400E94CE0644E264E081E00E94140683EB3C
S113055090E00E940E074EE265E081E00E941406DE
S11305608CE70E94CE064EE266E081E00E9414060B
S11305708CE70E94CE064EE267E081E00E941406FA
S11305808CE70E94CE0642E367E081E00E941406F5
S113059083EB90E00E940E07089596EE980F973132
S11305A008F0AFC084E00E94590682EB90E00E94FC
S11305B00E0741E165E080E00E9414068CE70E948A
S11305C0CE0641E166E080E00E9414068CE70E94BA
S11305D0CE0641E167E080E00E9414068CE70E94A9
S11305E0CE0646E167E080E00E94140681EB90E0CD
S11305F00E940E074DE267E080E00E9414068CE73B
S11306000E94CE064DE266E080E00E9414068CE76C
S11306100E94CE064DE265E080E00E9414068CE75D
S11306200E94CE0641E364E080E00E94140682EB5F
S113063090E00E940E0741E065E081E00E9414060C
S11306408CE70E94CE0641E066E081E00E94140639
S11306508CE70E94CE0641E067E081E00E94140628
S11306608CE70E94CE0646E067E081E00E94140613
S113067081EB90E00E940E074CE167E081E00E946C
S113068014068CE70E94CE064CE166E081E00E94ED
S113069014068CE70E94CE064CE165E081E00E94DE
S11306A014068CE70E94CE0640E264E081E00E94DA
S11306B0140682EB90E00E940E0740E365E081E0BF
S11306C00E9414068CE70E94CE0640E366E081E0B7
S11306D00E9414068CE70E94CE0640E367E081E0A6
S11306E00E9414068CE70E94CE0645E367E081E091
S11306F00E9414068FE50E94CE068FE50E94CE0666
S113070008959FEC980F923008F08AC084E00E940C
S113071059068FE50E94CE068FE50E94CE068FE52E
S11307200E94CE068FE50E94CE068FE50E94CE067B
S113073085E00E94590686EB90E00E940E0786E051
S11307400E94590686EB90E00E940E0787E00E9403
S1130750590686EB90E00E940E078FE50E94CE06B4
S11307608FE50E94CE068FE50E94CE068FE50E949B
S1130770CE068FE50E94CE068CEB90E00E940E0719
S113078042E066E081E00E9414068CEB90E00E9457
S11307900E0742E065E081E00E9414068CEB90E0D5
S11307A00E940E0747E064E081E00E9414068FE592
S11307B00E94CE068FE50E94CE068FE50E94CE06EB
S11307C08FE50E94CE068FE50E94CE0643E265E0E7
S11307D081E00E9414068CE70E94CE0643E266E0A4
S11307E081E00E9414068CE70E94CE0643E267E093
S11307F081E00E9414068CE70E94CE0648E267E07E
S113080081E00E9414068FE50E94CE068FE50E94C7
S1130810CE068FE50E94CE068FE50E94CE0608958F
S11308209DEC980F993108F08CC084E00E94590621
S11308308FEA90E00E940E0740E265E080E00E94AB
S113084014068CE70E94CE0640E266E080E00E9437
S113085014068CE70E94CE0640E267E080E00E9426
S113086014068CE70E94CE0644E267E080E00E9412
S1130870140682EB90E00E940E0744E367E080E0F8
S11308800E9414068CE70E94CE0644E366E080E0F2
S11308900E9414068CE70E94CE0644E365E080E0E3
S11308A00E9414068CE70E94CE0648E364E080E0D0
S11308B00E9414068FEA90E00E940E074AE165E068
S11308C081E00E9414068CE70E94CE064AE166E0AD
S11308D081E00E9414068CE70E94CE064AE167E09C
S11308E081E00E9414068CE70E94CE064EE167E088
S11308F081E00E94140682EB90E00E940E074EE213
S113090067E081E00E9414068CE70E94CE064EE266
S113091066E081E00E9414068CE70E94CE064EE257
S113092065E081E00E9414068CE70E94CE0642E353
S113093064E081E00E94140683EB90E00E940E07BD
S113094008958C54893138F484E00E94590680EA71
S113095090E00E940E0708950E94CB070E9487062C
S11309600E9471080E94B2088EEB90E00E940E076C
S11309700E94C00680ED90E00E940E070E94C0060F
S113098085EE90E00E940E070E94C0060E94C006F9
S11309900E94C0060E94C0068CEF90E00E940E07E1
S11309A083E191E00E940E072FEF89E698E1215040
S11309B080409040E1F700C0000089E00E94930766
S11309C0813049F48AE00E949307811104C00E9497
S11309D0620681E00EC089E00E9493078111C4CFB2
S11309E08AE00E949307813009F0BECF0E9462061C
S11309F082E0813009F048C064E471E086E491E06B
S1130A000E94BC0888E291E00E940E078091460192
S1130A1090914701893E2DEF920728F08EE291E0F4
S1130A200E940E0707C065E00E941B0780E191E069
S1130A300E940E0781E00E9459068DE391E00E9416
S1130A400E0763E080914401909145010E941B07C9
S1130A5085E20E94CE06809144010E940D028FEF30
S1130A6094E32CE0815090402040E1F700C0000066
S1130A708FEF94E32CE0815090402040E1F700C0D8
S1130A8000000E946206B8CF823009F06DCFC0E04A
S1130A908CE00E949307813051F4CF5F8FEF99E689
S1130AA028E1815090402040E1F700C000008DE033
S1130AB00E9493078130E9F48091440190914501AB
S1130AC08436910520F010924501109244018091E2
S1130AD044019091450149969093450180934401C6
S1130AE08FEF96E121E1815090402040E1F700C072
S1130AF00000C23059F018F4C13089F004C0C3308A
S1130B0041F0C43049F00DE310E00BC000ED13E0F8
S1130B1008C004E81EE105C004E214EF02C004EFBB
S1130B2010E060914401C8010E94750888E291E0D8
S1130B300E940E078091460190914701893E9D4F86
S1130B4028F08EE291E00E940E0708C065E0C8011B
S1130B500E941B0780E191E00E940E0781E00E9441
S1130B6059068DE391E00E940E0763E080914401F1
S1130B70909145010E941B0785E20E94CE06809158
S1130B8044010E940D028FEF92E527E081509040CE
S1130B902040E1F700C000000E94620679CF85B3CF
S1130BA0806285BB85B38F7E85BB089585B38061E4
S1130BB085BB85B38F7D85BB08958BBB85B38B7F48
S1130BC085BB85B38D7F85BB85B3816085BB85E09F
S1130BD08A95F1F7000085B38E7F85BB85E08A9501
S1130BE0F1F700008AE18A95F1F700C00895909129
S1130BF04B0189278BBB85B3846085BB85B38D7F0F
S1130C0085BB85B3816085BB85E08A95F1F70000DB
S1130C1085B38E7F85BB85E08A95F1F700008AE174
S1130C208A95F1F700C00895FF920F931F93CF9315
S1130C30DF938230E0F46830D0F44034C0F4142FF1
S1130C40062FF82E811103C00E94CF0502C00E9416
S1130C50D605C8E4D1E0F882602F686B6983812FE0
S1130C6080648A830E94DD0589810E94DD05DF910D
S1130C70CF911F910F91FF9008951F93CF93DF930E
S1130C80823098F4182F811103C00E94CF0502C04E
S1130C900E94D605C8E4D1E0188380E48A83898160
S1130CA00E94DD058A810E94DD05DF91CF911F91AD
S1130CB00895883030F488548093490180E00E947C
S1130CC03D0608951F93CF93DF93E8E4F1E0138189
S1130CD01382D0E011C08D2F0E945906C0E009C0D4
S1130CE0C03419F481E00E943D0680E00E94F705BB
S1130CF0CF5FCC23ACF7DF5FD83068F310934B01A0
S1130D0080E00E945906DF91CF911F9108958FEFE3
S1130D1084BB8ABB85B3886085BB87EC90E0019770
S1130D20F1F700C0000085B3877F85BB95E39A95F2
S1130D30F1F7000085B3886085BB87EC90E00197EC
S1130D40F1F700C000000E94CF058FE30E94DD058B
S1130D500E94D6058FE30E94DD058FE19EE4019792
S1130D60F1F700C000000E94CF0580EC0E94DD0571
S1130D700E94D60580EC0E94DD050E94620608955B
S1130D80E8E4F1E081818F5F8183803C18F088EB97
S1130D908093490180E00E943D0608950F931F93BC
S1130DA0CF93DF93C82F80914801813021F4809143
S1130DB04A018C3710F4CA3011F40E94C006CA30BC
S1130DC041F18C2F90E0EC01CC0FDD1FCC0FDD1F27
S1130DD0CC0FDD1FC81BD90BCC5ADF4F80914801C3
S1130DE0811107C080914A01803819F481E00E9482
S1130DF03D068E010F5F1F4FFE0184918F3F49F026
S1130E000E94F705E8E4F1E082818F5F8283E801C4
S1130E10E5CFDF91CF911F910F910895CF93DF9389
S1130E20EC0103C021960E94CE0688818111FACF7D
S1130E30DF91CF9108951F93CF93DF93CDB7DEB7A2
S1130E402A970FB6F894DEBF0FBECDBFAC01E62FD4
S1130E50892B59F010E04AC0A1E0B0E0AC0FBD1FEF
S1130E60A10FB11D1C921F5F01C010E01E1708F0F6
S1130E704EC01A3088F34BC04115510569F19A01EF
S1130E80ADECBCEC0E94FB0A9695879596958795E8
S1130E90969587959C01220F331F880F991F880F01
S1130EA0991F880F991F820F931F9A01281B390BD2
S1130EB0A1E0B0E0AC0FBD1FA10FB11D2C939A01AE
S1130EC0ADECBCEC0E94FB0AAC01569547955695D7
S1130ED047955695479509C0EB30C8F4A1E0B0E0BA
S1130EE0AC0FBD1FA10FB11D1C921F5F1E1720F276
S1130EF00EC0E12FF0E0319781E090E08C0F9D1F50
S1130F00E80FF91F8081805D0E94CE0611501111F7
S1130F10F0CF2A960FB6F894DEBF0FBECDBFDF9197
S1130F20CF911F910895982F969596959695482F51
S1130F304770913081F028F09230B9F09330F9F095
S1130F4028C099B3892F90E002C0959587954A955A
S1130F50E2F78170089526B330E0C90102C0959587
S1130F6087954A95E2F78170089523B330E0C9016B
S1130F7002C0959587954A95E2F78170089520B34C
S1130F8030E0C90102C0959587954A95E2F78170D2
S1130F90089580E0089580E0A0C0982F96959695D6
S1130FA09695282F2770913061F138F0923009F42A
S1130FB04CC0933009F46DC08FC0E82FF0E0EE0F01
S1130FC0FF1FE05AFF4F9081913069F49AB341E0DA
S1130FD050E0BA0102C0660F771F2A95E2F79B0121
S1130FE0292B2ABB79C09AB341E050E0BA0102C070
S1130FF0660F771F2A95E2F79B01209529232ABBC8
S11310006BC0E82FF0E0EE0FFF1FE05AFF4F908116
S1131010913069F497B341E050E0BA0102C0660F21
S1131020771F2A95E2F79B01292B27BB55C097B35D
S113103041E050E0BA0102C0660F771F2A95E2F73B
S11310409B012095292327BB47C0E82FF0E0EE0F32
S1131050FF1FE05AFF4F9081913069F494B341E04F
S113106050E0BA0102C0660F771F2A95E2F79B0190
S1131070292B24BB31C094B341E050E0BA0102C033
S1131080660F771F2A95E2F79B012095292324BB3D
S113109023C0E82FF0E0EE0FFF1FE05AFF4F9081CE
S11310A0913069F491B341E050E0BA0102C0660F97
S11310B0771F2A95E2F79B01292B21BB0DC091B321
S11310C041E050E0BA0102C0660F771F2A95E2F7AB
S11310D09B012095292321BB8F5F803208F45DCFCB
S11310E0089583B7886483BF0895AC0180E683BF05
S11310F08FEF689F90011124369527953695279593
S1131100ABE7B4E10E94FB0A969587958CBF4E33FA
S1131110510520F483B7856083BF0895CA01CE9733
S1131120873B910520F483B7846083BF0895CA0187
S1131130855F91098C3D924020F483B7836083BF1F
S11311400895CA01815D9340843B9A4120F483B79A
S1131150826083BF089545385E4118F083B781608B
S113116083BF08951FBC1CBC1DBC89B7806289BFA6
S113117089B7846089BF08958F929F92AF92BF927E
S1131180CF92DF92EF92FF920F931F93CF93DF934F
S1131190FC0198B7906298BF81E48EBD08B605FE45
S11311A0FDCF46B557B598B7906298BF81E08EBD24
S11311B008B605FEFDCF26B537B598B7906298BF3F
S11311C081E48EBD08B605FEFDCFC6B4D7B498B78A
S11311D0906298BF1EBC4217530708F041C02C15FB
S11311E03D05F0F5E901C41BD50BC41AD50A86EFF9
S11311F0C816D10470F18B015F01E12CF12C60E081
S113120072E18AE790E0A70196010E94D90A220FB1
S1131210331FF50131832083BE0180E090E00E94FA
S1131220DE094B015C01C701B6010E94DE099B0186
S1131230AC01C501B4010E943D0920E030E048EC56
S113124052E40E946C0A0E94AF09F8017183608322
S113125007C08CED9FEF91838083FB011182108284
S1131260DF91CF911F910F91FF90EF90DF90CF907E
S1131270BF90AF909F908F9008950E9451090C9455
S1131280320A0E942B0A58F00E94240A40F029F4E2
S11312905F3F29F00C941B0A51110C94660A0C94BC
S11312A0210A0E94430A68F39923B1F3552391F369
S11312B0951B550BBB27AA2762177307840738F0C1
S11312C09F5F5F4F220F331F441FAA1FA9F335D01E
S11312D00E2E3AF0E0E832D091505040E695001CD2
S11312E0CAF72BD0FE2F29D0660F771F881FBB1F8C
S11312F0261737074807AB07B0E809F0BB0B802D6A
S1131300BF01FF2793585F4F3AF09E3F510578F095
S11313100C941B0A0C94660A5F3FE4F3983ED4F3E2
S1131320869577956795B795F7959F5FC9F7880F69
S1131330911D9695879597F90895E1E0660F771FBB
S1131340881FBB1F621773078407BA0720F0621B4C
S1131350730B840BBA0BEE1F88F7E09508950E9477
S11313604B0A88F09F5798F0B92F9927B751B0F0DE
S1131370E1F0660F771F881F991F1AF0BA95C9F715
S113138014C0B13091F00E94650AB1E008950C9444
S1131390650A672F782F8827B85F39F0B93FCCF3F7
S11313A0869577956795B395D9F73EF49095809592
S11313B0709561957F4F8F4F9F4F0895E89409C0B2
S11313C097FB3EF490958095709561957F4F8F4F74
S11313D09F4F9923A9F0F92F96E9BB279395F6958A
S11313E0879577956795B795F111F8CFFAF4BB0F08
S11313F011F460FF1BC06F5F7F4F8F4F9F4F16C06C
S1131400882311F096E911C0772321F09EE8872FF5
S1131410762F05C0662371F096E8862F70E060E0B1
S11314202AF09A95660F771F881FDAF7880F96952A
S1131430879597F9089597F99F6780E870E060E0D1
S113144008959FEF80EC089500240A941616170659
S113145018060906089500240A94121613061406A1
S113146005060895092E0394000C11F4882352F004
S1131470BB0F40F4BF2B11F460FF04C06F5F7F4FBC
S11314808F4F9F4F089557FD9058440F551F59F0A3
S11314905F3F71F04795880F97FB991F61F09F3F5D
S11314A079F087950895121613061406551FF2CF86
S11314B04695F1DF08C0161617061806991FF1CFD6
S11314C086957105610508940895E894BB276627FD
S11314D07727CB0197F908950E947F0A0C94320A6A
S11314E00E94240A38F00E942B0A20F0952311F060
S11314F00C941B0A0C94210A11240C94660A0E9471
S1131500430A70F3959FC1F3950F50E0551F629FF6
S1131510F001729FBB27F00DB11D639FAA27F00D48
S1131520B11DAA1F649F6627B00DA11D661F829F6F
S11315302227B00DA11D621F739FB00DA11D621F54
S1131540839FA00D611D221F749F3327A00D611D71
S1131550231F849F600D211D822F762F6A2F112453
S11315609F5750409AF0F1F088234AF0EE0FFF1F86
S1131570BB1F661F771F881F91505040A9F79E3FDD
S1131580510580F00C941B0A0C94660A5F3FE4F347
S1131590983ED4F3869577956795B795F795E79533
S11315A09F5FC1F7FE2B880F911D9695879597F93C
S11315B00895A1E21A2EAA1BBB1BFD010DC0AA1F90
S11315C0BB1FEE1FFF1FA217B307E407F50720F0A8
S11315D0A21BB30BE40BF50B661F771F881F991F23
S11315E01A9469F760957095809590959B01AC016C
S11315F0BD01CF010895A29FB001B39FC001A39F75
S1131600700D811D1124911DB29F700D811D112437
S10B1610911D0895F894FFCF29
S113161801010101010101010101010101010101AE
S113162801000001000101010001010101010101A2
S1131638010101010101010101010101010101018E
S1131648010101010101010101010101000101017F
S11316585F5F5F5F5F5F5F5F5F5F5F5F5F5F5F5F8E
S11316685F5F5F5F5F002020202020207C004231E4
S113167820666F7220696E707574205761766500F4
S1131688423220466F7220696E7465726E616C20F6
S1131698576176650028486F6C6420427574746FCE
S11316A86E20666F72203273656329004E6F74650D
S11316B83A4D415820467265712069732036354B7E
S11316C8487A004E6F74653A4D41582044757479D0
S11316D820696E2039382500467265713A004F75C5
S11316E874206F662052616E676521210044757409
S10716F8793A000037
S9030000FC
